{
  "_format": "hh-sol-artifact-1",
  "contractName": "RPSLogic",
  "sourceName": "contracts/RPSLogic.sol",
  "abi": [
    {
      "inputs": [],
      "stateMutability": "nonpayable",
      "type": "constructor"
    },
    {
      "inputs": [
        {
          "internalType": "uint32",
          "name": "choice1",
          "type": "uint32"
        },
        {
          "internalType": "uint32",
          "name": "choice2",
          "type": "uint32"
        }
      ],
      "name": "decideWinner",
      "outputs": [
        {
          "internalType": "uint32",
          "name": "",
          "type": "uint32"
        }
      ],
      "stateMutability": "view",
      "type": "function"
    }
  ],
  "bytecode": "0x608060405260016000806101000a81548163ffffffff021916908363ffffffff1602179055506002600060046101000a81548163ffffffff021916908363ffffffff1602179055506003600060086101000a81548163ffffffff021916908363ffffffff16021790555034801561007557600080fd5b50600060049054906101000a900463ffffffff16600160008060009054906101000a900463ffffffff1663ffffffff1663ffffffff16815260200190815260200160002060008060049054906101000a900463ffffffff1663ffffffff1663ffffffff16815260200190815260200160002060006101000a81548163ffffffff021916908363ffffffff1602179055506000809054906101000a900463ffffffff16600160008060009054906101000a900463ffffffff1663ffffffff1663ffffffff16815260200190815260200160002060008060089054906101000a900463ffffffff1663ffffffff1663ffffffff16815260200190815260200160002060006101000a81548163ffffffff021916908363ffffffff1602179055506000600160008060009054906101000a900463ffffffff1663ffffffff1663ffffffff16815260200190815260200160002060008060009054906101000a900463ffffffff1663ffffffff1663ffffffff16815260200190815260200160002060006101000a81548163ffffffff021916908363ffffffff160217905550600060049054906101000a900463ffffffff16600160008060049054906101000a900463ffffffff1663ffffffff1663ffffffff16815260200190815260200160002060008060009054906101000a900463ffffffff1663ffffffff1663ffffffff16815260200190815260200160002060006101000a81548163ffffffff021916908363ffffffff160217905550600060089054906101000a900463ffffffff16600160008060049054906101000a900463ffffffff1663ffffffff1663ffffffff16815260200190815260200160002060008060089054906101000a900463ffffffff1663ffffffff1663ffffffff16815260200190815260200160002060006101000a81548163ffffffff021916908363ffffffff1602179055506000600160008060049054906101000a900463ffffffff1663ffffffff1663ffffffff16815260200190815260200160002060008060049054906101000a900463ffffffff1663ffffffff1663ffffffff16815260200190815260200160002060006101000a81548163ffffffff021916908363ffffffff160217905550600060089054906101000a900463ffffffff16600160008060089054906101000a900463ffffffff1663ffffffff1663ffffffff16815260200190815260200160002060008060049054906101000a900463ffffffff1663ffffffff1663ffffffff16815260200190815260200160002060006101000a81548163ffffffff021916908363ffffffff1602179055506000809054906101000a900463ffffffff16600160008060089054906101000a900463ffffffff1663ffffffff1663ffffffff16815260200190815260200160002060008060009054906101000a900463ffffffff1663ffffffff1663ffffffff16815260200190815260200160002060006101000a81548163ffffffff021916908363ffffffff1602179055506000600160008060089054906101000a900463ffffffff1663ffffffff1663ffffffff16815260200190815260200160002060008060089054906101000a900463ffffffff1663ffffffff1663ffffffff16815260200190815260200160002060006101000a81548163ffffffff021916908363ffffffff16021790555061011b806105576000396000f3fe6080604052348015600f57600080fd5b506004361060285760003560e01c80630744e52814602d575b600080fd5b606c60048036036040811015604157600080fd5b81019080803563ffffffff169060200190929190803563ffffffff169060200190929190505050608e565b604051808263ffffffff1663ffffffff16815260200191505060405180910390f35b6000600160008463ffffffff1663ffffffff16815260200190815260200160002060008363ffffffff1663ffffffff16815260200190815260200160002060009054906101000a900463ffffffff1690509291505056fea26469706673582212209bf45f7df3028fe571385ed48f5d9dea5459b412fcfd908c6bcf662d273d200f64736f6c63430006000033",
  "linkReferences": {},
  "deployedLinkReferences": {}
}